:020000040800F2
:10000000E016002001010008730F0008B50E00087B
:10001000710F0008F7010008FF260008000000002B
:10002000000000000000000000000000391200087D
:100030006902000800000000371200083B120008A7
:100040001B0100081B0100081B0100081B01000820
:100050001B0100081B0100081B0100081B01000810
:100060001B0100081B0100081B0100081B01000800
:100070001B0100081B0100081B0100081B010008F0
:100080001B0100081B0100081B0100087D26000859
:10009000892600081B0100081B0100081B0100083D
:1000A0001B0100081B0100081B0100081B010008C0
:1000B0001B0100081B0100081B0100081B010008B0
:1000C0001B0100081B0100081B0100081B010008A0
:1000D0001B0100081B0100081B0100081B01000890
:1000E0001B0100081B0100081B010008DFF80CD0F1
:1000F00000F044F80048004741270008E0160020BF
:100100000648804706480047FEE7FEE7FEE7FEE7B1
:10011000FEE7FEE7FEE7FEE7FEE7FEE7A1120008C6
:10012000ED00000840EA01039B0703D009E008C97D
:10013000121F08C0042AFAD203E011F8013B00F8AC
:10014000013B521EF9D27047D2B201E000F8012BF8
:10015000491EFBD270470022F6E710B513460A4647
:1001600004461946FFF7F0FF204610BD421C10F868
:10017000011B0029FBD1801A70470000064C074D77
:1001800006E0E06840F0010394E807009847103467
:10019000AC42F6D3FFF7AEFFA4270008C42700083F
:1001A00070B58C1810F8015B15F0070301D110F839
:1001B000013B2A1106D110F8012B03E010F8016B66
:1001C00001F8016B5B1EF9D12B0705D40023521EE9
:1001D0000DD401F8013BFAE710F8013BCB1A921C51
:1001E00003E013F8015B01F8015B521EF9D5A1424F
:1001F000D8D3002070BDFEE7002070470020704774
:1002000010B500220449054801F060F9044903488B
:1002100001F056F9002010BDF40E0020BC010020B2
:100220000C0B002010B50146034801F049F90248C3
:1002300001F02AF9002010BDBC010020094A10B5C8
:10024000D2F8B822D2F814220AB1012010BD0A4611
:100250000146044801F03AF9BDE81040014801F0B8
:1002600093B90000BC0100207047704770B5044688
:1002700000F00EF80546601C02D0044800780444E3
:1002800000F006F8401BA042FAD370BD2001002008
:100290000148806870470000200100200248816802
:1002A000027811448160704720010020074810B592
:1002B000016841F010010160032000F075F8002092
:1002C00000F006F800F024F8002010BD00200240E5
:1002D00070B50D4D04464FF47A712878B1FBF0F0FB
:1002E0000A490968B1FBF0F000F0D0FD48B9102CC4
:1002F00007D200222146501E00F036F800206C6024
:1003000070BD012070BD0000200100202C010020E4
:100310000C4808B5816941F001018161816901F0F2
:1003200001010091C16941F08051C161C06900F0D3
:10033000805000900448416821F0E06141F0007174
:10034000416008BD0010024000000140002809DBA8
:1003500000F01F02012191404009800000F1E020DF
:10036000C0F8001170470000F0B40E4B1B680C463B
:10037000C3F30223C3F10705042D00D90425191D79
:10038000072901D2002300E0DB1E012606FA05F151
:10039000491E214099409E40761E16403143F0BCD4
:1003A00002F0AEB90CED00E0064900F00702086863
:1003B0004FF6FF03184040EA0220034A104308604A
:1003C000704700000CED00E00000FA0510B50C06C7
:1003D00005D501F0070100EB4110283003E000EBE8
:1003E000411000F5947099B232B10122027301817B
:1003F000190C4181002010BD00220273C180F9E771
:10040000704700EB4112D0F86802D26B01F075BA68
:1004100000EB4112D0F86802D2F83C2101F0D0BACA
:1004200070B504460B0601F0070004EB40114FF0D5
:1004300001024FF0000503D581F82920283103E09F
:1004400081F8295101F59471087094F82802012867
:1004500008D084F82822206801F043FF84F828524D
:10046000002070BD022070BD70B5044601F00F0081
:100470006268904201D9012070BD0B0601F00700AF
:1004800004EB40114FF001024FF0000503D581F855
:100490002920283103E081F8295101F594718D70EC
:1004A000087094F82802012808D084F828222068CF
:1004B00001F0BAFF84F82852002070BD022070BD00
:1004C00001F0070100EB4110D0F8440170472DE91D
:1004D000F04104460F0601F0070004EB40114FF015
:1004E00001064FF0000503D581F82960283103E0AB
:1004F00081F8295101F5947108700A61CB704A782E
:1005000002B1C881022B00D10D7194F82802012894
:1005100009D084F82862206801F0AEFD284684F8EE
:100520002852BDE8F0810220FBE770B50C4601F0CF
:10053000070500EB4511C1E94F230022C1F8442112
:1005400081F8292181F8285101F59471620700682A
:1005500001F0BFFF002070BD70B504460D4601F0EC
:1005600007006168884201D9012070BD29064FF05B
:1005700000064FF0010205D504EB401181F8292057
:10058000283105E004EB451181F8296101F59471EA
:100590008A70087094F82802012807D084F828226D
:1005A000206801F07DFF680702D006E0022070BDE0
:1005B00004F50C71206801F035FF84F828620020F2
:1005C00070BD70B50C4601F0070500EB4511C1E99F
:1005D0000F2300224A64012281F8292001F8285FB4
:1005E0006207006801F075FF002070BD10B5044679
:1005F000006802F04FF8000402D5204600F0BAFC73
:10060000206802F047F840050CD5206830F8441FF8
:1006100021F480610180204600F004F90021204689
:1006200000F01BF9206802F035F8400405D5206879
:1006300030F8441F21F480410180206802F02AF83C
:10064000800405D5206830F8441F21F40051018052
:10065000206802F01FF8C00414D5206830F8401F4D
:1006600021F004010180206830F8401F21F00801CA
:100670000180204600F0E9F8206830F8441F21F49A
:1006800080510180206802F005F800051FD5206820
:1006900030F8401F41F008010180206830F8441F05
:1006A00021F400610180206830F8401F41F004010E
:1006B0000180206801F0EEFFC00405D5206830F805
:1006C000441F21F480510180204600F0FBF820688F
:1006D00001F0E0FF800508D5206830F8441F21F4C0
:1006E00000710180204600F0B4F8206801F0D2FFCC
:1006F000C00505D5206830F8441F21F480710180C1
:1007000010BD00002DE9F04186B0040004D094F83B
:100710002902002520B108E0012006B0BDE8F081E3
:1007200084F82852204600F057F8032084F8290264
:10073000206801F070FE04F110011422884668461A
:10074000FFF7F0FC94E80F0001F0C9FD0227B0BBF1
:100750000021206801F0B8FF002001260DE000BF55
:1007600004EB401181F8296001F8280FC881CD7091
:100770000D614D61401CC0B28D6161688142EFD84E
:1007800000200FE004EB401181F8295181F8280185
:1007900081F82B51C1F83851C1F83C51401CC0B20E
:1007A000C1F8405161688142ECD814224146684644
:1007B000FFF7B8FC94E80F0001F01EFE10B184F8BA
:1007C0002972A9E784F8245084F82962206801F08E
:1007D00011FE0020A1E7000008B500680F4988421B
:1007E0001AD10F48C16941F40001C161C0690022FA
:1007F00000F40000009011461320FFF7B5FD132010
:10080000FFF7A4FD002211461420FFF7ADFDBDE85F
:1008100008401420FFF79ABD08BD0000005C0040AE
:100820000010024070B5044680680125022801D0FE
:10083000FFF71BFD2946D4F8680201F0A8F9D4F8A7
:100840006802BDE8704001F064B9D0F8680201F0B8
:1008500088B9D0F8680201F08EB910B5044690F856
:10086000280201280BD0012084F8280284F82410E3
:10087000206801F02BFF002084F8280210BD022020
:1008800010BDD0F8682200F50C71104601F08BB94C
:1008900010B5044690F82802012810D0012084F8F1
:1008A000280201462046FFF7ABFD206801F0A0FDBD
:1008B000206801F0DCFE002084F8280210BD022030
:1008C00010BD000010B50446D0F8680201F0AAF986
:1008D000A069002804D00348016841F006010160C6
:1008E00010BD000010ED00E02DE9F843054600784A
:1008F000354CC00754D0E0690026C00008D4E06938
:1009000040F08050E061E069012600F080500090E6
:100910002E480168C90512D40168804641F48071EF
:100920000160FFF7B5FC074605E000BFFFF7B0FC2C
:10093000C01B642823D8D8F80000C005F6D5206A6B
:1009400010F4407021D0A98801F4407181421CD07C
:10095000206A1F49012220F440700A6000220A60C8
:100960002062C00711D0FFF793FC074641F2883898
:1009700008E000BFFFF78CFCC11B414502D90320F2
:10098000BDE8F883206A8007F4D5206A696820F4FE
:100990004070084320621EB1E06920F08050E061A1
:1009A0002878800705D56068A96820F4404008438E
:1009B00060602878C00605D56068E96820F480008A
:1009C000084360600020DBE7001002400070004038
:1009D000400442422DE9F0470F46050061D0434EE6
:1009E000306800F00700B84209D2306820F00700F4
:1009F00038433060306800F00700B84251D12868B1
:100A00003B4C810712D5400703D5606840F4E06095
:100A100060602878000703D5606840F4605060602B
:100A20006068A96820F0F000084360602878C0077B
:100A300028D06868012810D02168022810D08907C2
:100A400000292EDA616821F0030101436160FFF79C
:100A50001FFC804641F288390DE021688903EFE7E9
:100A60008901EDE7FFF714FCA0EB0801494502D925
:100A70000320BDE8F0876068696800F00C00B0EB07
:100A8000810FEFD1306800F00700B8420BD9306811
:100A900020F0070038433060306800F00700B842AB
:100AA00001D00120E5E72878400705D56068E968AE
:100AB00020F4E060084360602878000706D560688D
:100AC000296920F4605040EAC100606000F018F825
:100AD0006168084AC1F30311515CC84006490860C7
:100AE00006480068FFF7F4FB0020C2E70020024040
:100AF00000100240942700082C010020240100204F
:100B000012A185B00FC98DE80F0014A0144A006827
:100B100004905168134801F00C03042B10D0082BEB
:100B20000ED1C1F38343C9031DF803000AD55168F0
:100B300004AAC1F34041515C0A4A5043B0FBF1F0B2
:100B400005B0704708494843FAE70000020304056E
:100B5000060708090A0B0C0D0E0F10100102000009
:100B60000010024000127A0000093D002DE9F84F04
:100B7000040070D02078C04DC00749D06868C0F329
:100B80008100012807D06868C0F38100022809D1DC
:100B90006868C00306D52868800339D560680028D6
:100BA000E7D035E06068B0F5803F0BD010B1B0F50C
:100BB000A02F11D0286820F480302860286820F405
:100BC000802002E0286840F480302860606890B19E
:100BD000FFF75EFB06460AE0286840F480202860A4
:100BE000F0E700BFFFF754FB801B642873D8286828
:100BF0008003F7D50CE0FFF74BFB064605E000BF8E
:100C0000FFF746FB801B6428F0D828688003F7D4E0
:100C100020789A4E80074FF001094FF0000839D52F
:100C2000686810F00C0F07D06868C0F381000228D4
:100C300009D16868C00306D42868800714D52069E4
:100C4000012808D110E02069B0B1C6F80090FFF784
:100C50001FFB074605E00AE1FFF71AFBC01B02284D
:100C6000C4D828688007F7D52868616920F0F800A3
:100C700040EAC10028600DE0C6F80080FFF708FBDD
:100C8000074604E0FFF704FBC01B022823D82868AE
:100C90008007F7D4207800072CD57948A169D9B10D
:100CA000C0F80090FFF7F4FA074604E0FFF7F0FA07
:100CB000C01B02280FD8686A8007F7D571484FF427
:100CC000FA510068B0FBF1F0009000BF0098411E9F
:100CD0000091FAD20EE080E0C0F80080FFF7D8FA69
:100CE000074604E0FFF7D4FAC01B022875D8686AEB
:100CF0008007F7D42078400760D5E8690027C00056
:100D000008D4E86940F08050E861E869012700F004
:100D1000805000905C480168C90513D4016883467F
:100D200041F480710160FFF7B3FA824606E000BF2C
:100D3000FFF7AEFAA0EB0A0064284ED8DBF80000FB
:100D4000C005F5D5E06801280AD008B1052813D000
:100D5000286A20F001002862286A20F0040002E0DE
:100D6000286A40F001002862E06841F2883B98B1AF
:100D7000FFF78EFA82460BE0286A40F004002862F2
:100D8000EEE700BFFFF784FAA0EB0A0159455AD8F5
:100D9000286A8007F6D50CE0FFF77AFA824605E06C
:100DA000FFF776FAA0EB0A0159454CD8286A80076C
:100DB000F6D41FB1E86920F08050E861E06988B39B
:100DC0006968C1F38101022944D00228C6F8608015
:100DD00004D0FFF75DFA044638E034E0FFF758FA34
:100DE000074604E0FFF754FAC01B02282BD82868F6
:100DF0008001F7D4206AB0F5803F05D16868A1680A
:100E000020F4003008436860D4E9080108436968A9
:100E100021F4741108436860C6F86090FFF738FA4F
:100E2000044606E025E000BFFFF732FA001B022867
:100E300009D828688001F7D51BE000BFFFF728FA22
:100E4000001B022802D90320BDE8F88F2868800122
:100E5000F4D40EE00128F7D06868226A00F48031EB
:100E6000914204D1616A00F47010884201D00120DF
:100E7000EAE70020E8E700000010024000004242DC
:100E8000800442422C0100200070004010B5401E3A
:100E9000B0F1807F01D3012010BD4FF0E0246061EC
:100EA0000F21601701F02CFC0020A06107202061B9
:100EB000002010BDFEE70000F0B500230A24302515
:100EC00037261F4611E000BFB4EB107F02D905EBB7
:100ED000107C01E006EB107C01F813C001EB430C21
:100EE00000015B1C8CF80170DBB29342ECD3F0BDC7
:100EF000094808B5816941F020018161816901F0EB
:100F000020010091816941F004018161806900F054
:100F10000400009008BD00000010024010B500223F
:100F20000F49104800F0C2FC08B1FFF79EF90E49C6
:100F30000C4800F09DFE08B1FFF797F90B490948EE
:100F400000F0B6FA08B1FFF790F9064800F0E6FEA7
:100F5000002803D0BDE81040FFF787B910BD00009E
:100F600000000020BC0100208001002010010020B2
:100F7000FEE770472DE9F05F044648F60F7B4FF01F
:100F8000020A4FF480684AE1B0F8441011F00F06ED
:100F900029D030F82670390479D530F8261040F67B
:100FA0008F72114041F0800120F8261004EB4615A5
:100FB00095F8340105F594750028206868D02978E3
:100FC00030F8212052047DD5B0F850200AEBC10141
:100FD0000A4408EB4201415AC1F309015FEA0109E1
:100FE00071D02A89D2E0C9062DD4018801EA0B010B
:100FF00041F400410180206804F12805B0F8502038
:101000002B780AEBC3010A4408EB4201405AC0F3B3
:1010100009006064E16B0844E06300212046FFF7AB
:10102000F0F994F824000028ADD0A8690028AAD1CE
:1010300094F82400216840F08000A1F84C000020C2
:1010400084F82400EBE0018804F594750A0520D5A6
:10105000B0F850202B78062101EBC3010A4408EBBD
:101060004201405A04F50C71C0F30903EB61EA88B0
:10107000206801F013FB2068018840F68F72114050
:1010800041F0800101802046FFF7FBFBC7E0A2E0B2
:1010900058E0090455D5018840F68F72114041F09F
:1010A000800101802168B1F850202B78062000EBE8
:1010B000C300024408EB4200085A83059B0DEB6114
:1010C00010D001E053E065E0696959B1EA88206811
:1010D00001F0E4FAE9696869084468610021204682
:1010E000FFF796F92068B0F850100844296900F21B
:1010F0000C4051B13E2910D84A08C90700D0521CF3
:101100004FF6FF7101EA82210FE0018821F4F841D6
:101110000180018841F4004107E04A09C90600D175
:10112000521E4FF4004141EA82210180206801886B
:101130004BF68F72114081F4405148F28002114306
:1011400001806CE0B0F850202B78062101EBC30140
:101150000A4408EB4201415AC1F309015FEA01095F
:1011600024D0EA884B46696901F098FA1EE0B0F88D
:101170005030062202EBC1015A1808EB4201415AD5
:10118000C1F309015FEA010904D06A894B46696924
:1011900001F084FA2878226832F8201048F68F731C
:1011A000194048F2C003194322F82010E869484466
:1011B000E861686900EB09026A61AB6913B12869EB
:1011C000484504D929782046FFF722F903E0297819
:1011D0002046FFF7AAF9380621D5216804EB46100E
:1011E00031F8262002EA0B0242F4004221F82620C0
:1011F0002168B1F8505010F8282F0AEBC2022A4497
:1012000008EB4202895AC1F30901C16142690A44EB
:10121000426101788369204653B1FFF7D2F9206813
:10122000B0F8441009043FF5AFAE0020BDE8F09FD0
:10123000FFF7E7F8F3E770477047FFF72FB830B5CF
:1012400093B028216846FEF786FF14210AA8FEF70E
:1012500082FF002401200F94109411940104129431
:101260008DE8130004904FF4E010CDE9081002253A
:1012700007956846FFF77AFC0F20CDE90A0568025A
:10128000CDE90C4002210AA80E94FFF7A3FB102021
:101290000F9012940FA8FFF727FB13B030BD00008A
:1012A0000D48016841F00101016041680B4A11409D
:1012B000416001680A4A11400160016821F48021FF
:1012C0000160416821F4FE0141604FF41F0181601B
:1012D0000449C00308607047001002400000FFF896
:1012E000FFFFF6FE08ED00E02DE9F041D0F8C03236
:1012F000D0F8B822CAB101EB810400EB84040025C8
:10130000E6693EB103EB41139B6BB6FBF3F703FBBE
:10131000176323B1C2F814520020BDE8F081002306
:101320001A46E56100F087FCF6E70220F5E770B5A4
:101330000546D0F8B84200F084FBC4F80C02D5F89A
:10134000B80248B1D5F8BC12D4F80402CA6804F552
:1013500003719047002070BD022070BD70B5044637
:101360000026812100F0C0FA002501212046E56217
:1013700000F0BAFA82212046C4F86C5100F0B4FAA9
:101380002564D4F8B80248B1D4F8BC0204F52E7430
:1013900040688047206800F069FE2560304670BDD7
:1013A00010B5D0E9AE4159B194F80002FF2807D03A
:1013B0008B6894F8012221469847FF2084F80002A8
:1013C000002010BD0A210180004870473401002030
:1013D0002021018000487047600100202021018009
:1013E00000487047400100202021018000487047DC
:1013F000600100202DE9F04104460026007C4FF4F6
:101400000077012590B3402302228121204600F07D
:101410006BFB4023E56202220121204600F064FBC1
:101420000823032282212046C4F86C5100F05CFBA3
:101430004FF40770256400F01BFEC4F8B802F8B141
:101440000546D4F8BC02006880470020C5F81402A5
:10145000C5F81802207CD5F8042298B14023012158
:10146000204600F04DFB3046BDE8F081FFE73B46EB
:1014700002228121204600F037FB3B46E562CAE7A5
:101480000126F0E73B46EAE710B5D0F8B81269B19B
:10149000027C002AD1F8042205D04023012100F06B
:1014A0002FFB002010BD4FF40073F7E7022010BDA2
:1014B00002460220002902D00020C2F8BC12704768
:1014C000D0F8B802C0F8041200207047D0F8B80273
:1014D000C0F81022C0F80812002070472DE9FC4126
:1014E0000546D0F8B87200208DF80000ADF8040071
:1014F000064608780C4610F0600121D020293BD127
:10150000E288AAB10006607807D5D5F8BC128B68CE
:1015100039469847E288394626E087F80002A079E4
:1015200087F80102E2883946284600F06AF828E088
:10153000D5F8BC12607800228B682146984720E0DD
:10154000607820B10A2809D00B2815D110E095F851
:101550009C02032810D1022201A905E095F89C0203
:10156000032809D101226946284600F064F808E002
:1015700095F89C02032804D02146284600F036F84E
:1015800002263046BDE8FC8110B5D0F8B812A1B1F2
:10159000D1F814220AB1012010BD0122C1F8142291
:1015A000D1F810220263B1F8102293B2D1F80822C8
:1015B000812100F040FB002010BD022010BD10B5BD
:1015C000D0F8B42252689047002010BD134610B5E1
:1015D0000A46002100F094FA002010BD134610B511
:1015E0000A46002100F027FB002010BD10B504467C
:1015F000802100F005FB2046BDE81040002100F0EE
:10160000FFBA10B50323C0F85C21C0F89432C0F8CB
:10161000602113460A46002100F072FA002010BD36
:1016200010B505210023C0F894121A46194600F09F
:1016300067FA002010BD10B50223C261C0F89432D1
:10164000026213460A46002100F0F5FA002010BDA0
:1016500010B504210023C0F894121A46194600F070
:10166000EAFA002010BD000010B50A46024903A0A6
:1016700000F0ECF8004810BD0C09002057696E55C9
:10168000534220436F6E6669670000001220088095
:10169000004870472800002010B50A46024903A000
:1016A00000F0D4F8004810BD0C09002057696E55B1
:1016B000534220496E7465726661636500000000E4
:1016C00004200880004870472400002010B50A4616
:1016D000024903A000F0BAF8004810BD0C09002030
:1016E00053544D6963726F656C656374726F6E6994
:1016F0006373000010B50A46024903A000F0A6F883
:10170000004810BD0C09002057696E555342000077
:1017100010B51A2008800A480168001D0468001DE1
:101720000068081809D008220649FFF7C5FB0549DB
:10173000042210312046FFF7BFFB0248801E10BD77
:10174000E8F7FF1FF6000020F8B504460020ADF8CA
:10175000000048880D46010A082956D2DFE801F04A
:101760005504091755554D53D4F8B012207C0A681A
:1017700022E0207C02260028D4F8B40205D0C16AF9
:1017800068468847014646704CE0816AF8E7C0B277
:1017900003281ED005DC58B1012810D0022834D10E
:1017A00013E0042819D005281BD0EE282DD11CE009
:1017B000D4F8B002426805E0694690471BE0D4F8CF
:1017C000B00282680AB3207CF6E7D4F8B002C2689F
:1017D000F8E7D4F8B0020269F4E7D4F8B00242693D
:1017E000F0E7D4F8B0028269ECE7D4F8B402816B78
:1017F00059B168468847014614E0207C28B9D4F8DE
:10180000B402416BF5E7207C20B129462046FFF762
:10181000EDFEF8BDD4F8B402016B68468847014676
:1018200007204870BDF8000048B1EA8852B18242F2
:1018300000D90246ADF800202046FFF7FCFEE888FC
:101840000028E6D12046FFF703FFF8BD70B500235E
:1018500000281ED00446002502E06D1CEDB2641C79
:101860002678002EF9D1022404EB45041480127866
:10187000CA545B1C0322CA5400245B1C06E0CA54F1
:101880005B1CDAB28C54521CD3B2401C0278002A82
:10189000F5D170BD01004FF0000004D0012901D046
:1018A000022901D0022070470120704710B580B195
:1018B000D0F8B43213B10023C0F8B43209B1C0F883
:1018C000B012012180F89C12027000F0BFF80020D5
:1018D00010BD022010BD10B5D0F8C002FEF7C4FD47
:1018E000BDE81040FFF7D6BF10B5D0F8C002FEF734
:1018F00097FDBDE81040FFF7CDBF2DE9F041174639
:10190000044651B1D4F8B40242691AB194F89C0269
:10191000032851D00220BDE8F081D4F8943200258C
:1019200004F11400022B03D0042B3AD0C3B33CE0E3
:10193000D0E903639E4207D9F11AC1608AB23946E1
:101940002046FFF74BFE12E08068B0FBF3F103FB8B
:10195000110199B9984211D3D4F8981288420DD246
:10196000002211462046FFF739FEC4F898520023A2
:101970001A461946204600F0C3F816E0D4F8B4021F
:10198000C16829B194F89C02032801D120468847F8
:101990008021204600F034F92046FFF741FE04E0A4
:1019A000FFE78021204600F02BF994F8A0020128DF
:1019B00004D184F8A05201E0204690470020AAE715
:1019C00070B51546044649B1D4F8B40282691AB11B
:1019D00094F89C02032830D0022070BDD4F89412F1
:1019E00004F5AA70032902D005291ED027E0D0E90A
:1019F00003218A420BD9531AC3600846834200D39D
:101A000003469AB229462046FFF7E0FD17E0D4F8D6
:101A1000B402016929B194F89C02032801D120463F
:101A200088472046FFF714FE09E000200146C4F86D
:101A30009402204600F0E4F801E0204690470020A0
:101A400070BDD0F8C002FEF73BBD000010B50446E3
:101A50001C481D49C0F86842C4F8C0020160082152
:101A600041600221816000218161C1610162FEF754
:101A700049FE08B1FEF7F9FB0022D4F8C002182392
:101A8000114604F53074FEF7A1FC58230022802192
:101A90002068FEF79BFCC023002281212068FEF70E
:101AA00095FC4FF48873002201212068FEF78EFC1C
:101AB0004FF48073002282212068FEF787FC00200B
:101AC00010BD0000A0060020005C00400A06D0F80F
:101AD000C00201F07F0100EB411002D590F82A000E
:101AE000704790F82A01704710B51C461346D0F88D
:101AF000C0022246FEF7EBFCBDE81040FFF7CABE6D
:101B000010B5D0F8C002FEF710FDBDE81040FFF799
:101B1000C1BE70B50022044640231146FFF7E4FF22
:101B200040260125C4F86461334600228021204606
:101B3000C4F85851FFF7D8FF6662A56184F89C523B
:101B40000020C4F894026060C4F8A402D4F8B8027B
:101B500028B1D4F8B4020021426820469047002002
:101B600070BD90F89C12042903D190F89D1280F862
:101B70009C120020704710B590F89C12032904D1E4
:101B8000D0F8B412C96901B18847002010BD0174B2
:101B90000020704710B5D0F8C002FEF75EFEBDE829
:101BA0001040FFF777BE70B5044600F52A70054671
:101BB00000F04AF80120C4F89402B4F8AE02C4F868
:101BC000980294F8A80210F01F010AD001290DD044
:101BD000022910D000F08001204600F011F800200A
:101BE00070BD2946204600F09EF8F8E729462046B9
:101BF00000F0D0F9F3E72946204600F023F9EEE79C
:101C000010B5D0F8C002FEF7A7FCBDE81040FFF702
:101C100041BE10B5D0F8C002FEF73AFEBDE8104054
:101C2000FFF738BE90F89C1280F89D12042180F8CE
:101C30009C120020704710B5D0F8C002FEF7C1FC1E
:101C4000BDE81040FFF726BE0A7802704A7842705D
:101C50008A78CB7802EB032242800A794B7902EB37
:101C6000032282808A79C97902EB0121C180704701
:101C70000246002011B1C2F8B4127047022070472A
:101C800010B5D0F8B42202241AB11268904700B9F6
:101C90000024204610BD000070B50E461E4D897808
:101CA00004462970012931D894F89C0202280BD0EF
:101CB00003280FD031462046FFF798FC29782046AC
:101CC000BDE87040FFF77BBCD9B10320616084F8A8
:101CD0009C0209E071B16068884212D0C1B220460E
:101CE000FFF76DFC297861602046FFF7C9FF0228E5
:101CF0000CD006E0022084F89C0220466160FFF7C9
:101D00005EFC2046BDE87040FFF7A2BC314620468D
:101D1000BDE87040FFF76ABC3001002010B5FFF746
:101D200078FF002010BD2DE9F0414A780026A02A56
:101D300008D00B7813F060030CD0202B05D0402B7B
:101D400073D102E000F054F971E0D0F8B422926847
:101D500090476CE0002301250A2A66D2DFE802F0F2
:101D6000405D6557650805652C29FFF7EDFC5EE0D1
:101D700004468888D8B9C888C8B94888802816D247
:101D800000F07F0794F89C02032810D084F89E721C
:101D900039462046FFF7FEFE2046FFF759FC1FB1EB
:101DA000022084F89C0242E084F89C523FE02046E6
:101DB0003BE0FFF771FF3AE0CA88012A35D190F87D
:101DC0009C22012A04D0022A02D0032A2DD104E049
:101DD000012200F10801836016E00122011D13E0D9
:101DE00090F89C22012A03D0022A01D0032A1CD198
:101DF000CA88022A19D1C560D0F8A41209B10321FA
:101E0000C160022200F10C01FFF715FC0FE04988C8
:101E100001290CD1C0F8A45211E090F89C22012AAB
:101E200008D0022A06D0032A04D0FFF7DFFB304691
:101E3000BDE8F08149880129F9D1C0F8A432FFF743
:101E400007FCF4E72DE9F0410A4604461078002724
:101E5000097910F060030AD0202B01D0402B50D11B
:101E6000D4F8B40211468368204698478FE0C0F347
:101E70004110012806D05078D0B301282AD0032879
:101E80003FD107E0D4F8B402114683682046BDE88C
:101E9000F041184794F89C02022802D0032872D11E
:101EA0000AE071B380296ED02046FFF7A9FE802199
:101EB0002046FFF7A5FE6AE0508838B931B1802985
:101EC00004D0D08810B92046FFF79AFE2046FFF7CD
:101ED000BFFB5CE094F89C020228E2D0032852D1B8
:101EE000508898BB4806F1D02046FFF7F4FCEDE798
:101EF000FFE794F89C020026022803D0032842D171
:101F000012E040E009B180293DD1080601F07F00D0
:101F100000EB800004EB800101D5143101E001F5F4
:101F2000AA7102220E602AE0080601F00F0000EB01
:101F3000800004EB80000AD5806920B301F07F00A7
:101F400000EB800004EB800514350BE01FE0D0F8B7
:101F50005801C0B101F07F0000EB800004EB800568
:101F600005F5AA7541B1802906D02046FFF7AEFDE0
:101F700010B10120286000E02E6002222946204690
:101F8000FFF759FB03E011462046FFF72FFB3846C9
:101F9000BDE8F08170B5054608780C46C12807D029
:101FA00010F0600008D0202806D040281BD103E0A4
:101FB000284600F01DF819E095F89C02012803D08E
:101FC000022801D003280ED1207901280BD8D5F89A
:101FD000B402826828469047E188014306D128462A
:101FE000FFF736FB02E02846FFF700FB002070BD3C
:101FF00038B5044688880D46042805D0052807D042
:102000002046FFF7F3FA38BDD4F8B002C16902E008
:10201000D4F8B002016A684688470146BDF800005E
:102020000028F0D0EA88002AEDD0824200D902468A
:10203000ADF800202046FFF7FEFA38BD28210180C8
:10204000004870473C0000208E2101800048704706
:102050006400002010B5024602490348FFF7F6FB72
:10206000004810BD0C0900208C27000870470000B4
:1020700000487047800400202DE9F0470C784FF0AD
:10208000000C30F8243048F68F121340CA78002A2A
:102090007DD0012A7CD0022A03D0032A79D04FF0C8
:1020A000010C48F28002134320F824300D7830F8F8
:1020B000254048F68F731C402C43144320F82540DC
:1020C0000F7B48F6BF744BF68F7948F2C0054CF28F
:1020D0008006EFB391F80080C24630F8287048F2CD
:1020E00080181F4047EA080720F82A70B0F850709F
:1020F00091F80080074407EB0817B1F8088028F032
:102100000108A7F80084B0F8507091F800800744E7
:1021100007EB0817B1F80A8028F00108A7F808842F
:102120004F7891F80080002F30F828704FEA474729
:102130007ED0002F05DA30F828701F40374320F892
:1021400028700F7830F827805FEA486809D500E0EA
:1021500033E030F8278008EA030848EA050820F849
:1021600027800F7830F827501D40354320F827503E
:10217000CB780D78012B30F8253003EA040301D029
:1021800083F02003134320F825300B7802E00BE0A6
:1021900010E00CE030F8231001EA0901114320F8A7
:1021A00023106046BDE8F08743F4007379E743F4F9
:1021B000C06376E743F4806373E74F7827B3B0F8E2
:1021C00050600F78064406EB0716CF8827F001070A
:1021D000A6F800740F7830F82760760605D530F839
:1021E00027601E402E4320F82760CB78012B06D0B5
:1021F0000B7830F82310214081F02001CEE70B78D6
:1022000030F823102140C9E7B0F850400D7804445D
:1022100004EB0514CD8825F00105A4F80854B0F8A6
:1022200050400D78044404EB051404F20C4400E023
:1022300030E00D6955B13E2D10D86F08ED0700D084
:102240007F1C4FF6FF7505EA87250FE0258825F4EA
:10225000F8452580258845F4004507E06F09ED061F
:1022600000D17F1E4FF4004545EA872525800D7873
:1022700030F82540640405D530F825401C4034432F
:1022800020F825400B7830F8231001EA090181F489
:10229000405183E7002F05DA30F828701F4037439C
:1022A00020F828700E7830F826707F0605D530F8B3
:1022B00026701F402F4320F826700F7830F82760D3
:1022C0001E402E4320F827600D7830F8253003EAB1
:1022D000090383F44053134320F825308FE700208F
:1022E00070472DE9F04391F80C804F780A7848F652
:1022F000BF7C4BF68F7948F2800348F2C0054CF260
:10230000800648F68F74B8F1000F28D0002F30F8FF
:1023100022704FEA474748D0002F05DA30F8227084
:102320002740374320F822700A7830F822707F0661
:1023300005D530F8227027402F4320F822700D7801
:1023400030F825202240324320F825200C7830F840
:10235000242002EA0C021A4320F824201AE07FB15C
:1023600030F82260760605D530F8226026402E43EC
:1023700020F822600A7830F8221001EA0C010EE001
:1023800030F822506D0405D530F8225025403543F1
:1023900020F822500A7830F8221001EA0901194386
:1023A00020F822100020BDE8F083002F05DA30F875
:1023B00022702740374320F822700A7830F82260D4
:1023C000760605D530F8226026402E4320F822609C
:1023D0000E7830F8262022402A4320F826200C7858
:1023E00030F8242002EA09021A4320F82420C1E729
:1023F000002070470020704700B50121A0F8401070
:102400000021A0F84010A0F84410A0F8501000F0EF
:102410002EF9002000BD30F8401F21F43F4101801B
:10242000002070470020704730B50A7BB2BB4A7865
:1024300048F68F7548F28004C2B10B7830F823203B
:10244000520607D530F823202A4048F2C0052A4317
:1024500020F82320CA78012A20D00A7830F82210E8
:1024600048F6BF73194081F0200114E00A7830F873
:1024700022305B0407D530F822302B404CF2800527
:102480002B4320F822300A7830F822104BF68F7355
:10249000194081F44051214320F82210002030BD22
:1024A00010B54A780978002A48F2800330F82120D4
:1024B00005D048F6BF74224082F0100204E04BF6CB
:1024C0008F74224082F480521A4320F82120002089
:1024D00010BDF0B50E46054691F801C00022097BFB
:1024E0003469B06948F28007BCF1010F04D0A04202
:1024F0004FD9001BB0614EE0A04202D9001BB06171
:1025000001E00446B26169B1307835F8201049061F
:10251000B5F85010294401EB001012D5A0F80C4476
:10252000728911E0A3B2F2882846716900F0D4F8EC
:10253000B5F850003178284400EB0110A0F80444AD
:102540001EE0A0F804443289A3B22846716900F065
:10255000C3F8707848F68F7110B1012807D00FE0EA
:10256000327835F82200084048F2C00105E03278A0
:1025700035F8220008404CF28001084325F822007B
:10258000317835F8210048F6BF72104080F03000F5
:1025900068E00446B2614FF6FF724FF4004381B326
:1025A000BCF1000F15D027E0018821F4F84101802B
:1025B000018841F400410AE03E2C3ED86108E3075F
:1025C00000D0491C02EA812101E043EA8121018017
:1025D00040E0B5F850003178284400EB011000F2DB
:1025E00004407CB13E2C15D861085FEAC47C00D061
:1025F000491C02EA81210180707810B1012821D0A4
:1026000028E00FE0018821F4F8410180018841F4BD
:102610000041F0E761095FEAC46C00D1491E43EA5A
:102620008121E8E7B5F850003178284400EB01102B
:1026300000F20C40002CBFD1B6E76109E206C4D11C
:10264000491EC2E7B5F850104819317800EB011067
:10265000A0F80C44317835F821004BF68F72104009
:1026600080F44050384325F821000020F0BD30F8B8
:10267000401F41F43F410180002070470148FDF7B1
:10268000B5BF0000A00600200148FDF7AFBF000065
:10269000A0060020B0F844007047000010B500EB21
:1026A00042005C0800F5806009D000BF30F8042BC0
:1026B00001F8012B120A01F8012B641EF6D1DA078A
:1026C00001D00088087010BD0020704711B980212A
:1026D000A0F84C100020704710B55B1C00EB4200C6
:1026E0005B0800F5806009D011F8012B11F8014B4F
:1026F00042EA042220F8042B5B1EF5D110BDFEE750
:102700000907090E002804DB00F1E02080F800141E
:10271000704700F00F0000F1E02080F8141D7047B2
:1027200002E008C8121F08C1002AFAD1704770479A
:10273000002001E001C1121F002AFBD170470000F8
:1027400086B0FDF7B3FDFEF77AFDFEF7D1FBFEF78D
:10275000E5FB4FF47A74142207A16846FDF7E2FC0A
:102760006846FDF703FD01466846FDF767FD204614
:10277000FDF77CFDEFE7000068656C6C6F207374FB
:102780006D33326633633874360D0A004D53465448
:10279000313030A0000000000000000001020304FE
:1027A00006070809C427000800000020BC0100003B
:1027B000A0010008DC280008BC010020241500004E
:1027C00030270008138D161B08C1041ACD041AF512
:1027D000041311171B0869081A9904133D201B08DC
:1027E000490417040309041201320216400912E4D5
:1027F000072602010203014228130104190B710785
:102800001057494E5553423A8E281A05282A8409F2
:1028100031122812441265127612691A630812499D
:10282000126E1A7408127212663A611212471A5521
:10283000163244324E127B1231123312451A4206BE
:1028400012361A30081A2D041A43161A450A1A3479
:10285000143A43141A41083A380A12451A462C1AF7
:10286000441212341A37121A343612361232527D8A
:10287000031A1A031301021408FD011B08F9041AB4
:10288000250C29AE82105324F4130A0632022A4082
:102890001C140902202008010104C032090433027B
:1028A000FF1B0705441A02072A81070914202A4042
:1028B000072A810713F5131B085D0413DD14420872
:1028C0001AA10C13E9121B082F08C11ADD102AD116
:0C28D0001C19041AC5041355200200084E
:04000005080000ED02
:00000001FF
